:040000004FEF00F0CE
:100008004082D9CF20F0DACF21F0F3CF22F0F4CF1D
:1000180023F0F6CF24F0F7CF25F0F8CF26F0F5CF70
:1000280027F0F2BAF2A425D03A503B10D8A403D056
:100038000CEC03F019D03A043B10D8A403D078ECA8
:1000480002F012D0020E3A183B10D8A40DD091EC51
:1000580003F0580E3C1806E1020E3D18D8A402D051
:100068003E4A3F2A3C4A3D2AF40ED76ECB0ED66E46
:10007800F29427C0F5FF26C0F8FF25C0F7FF24C07B
:10008800F6FF23C0F4FF22C0F3FF21C0DAFF20C02F
:10009800D9FF409211001AEF07F0B2EC06F0000EFB
:1000A8000001836F000E826F80B005D0000E000142
:1000B8007D6F010E7C6F80B205D0000E00017F6F4E
:1000C800010E7E6F80B405D0000E00017B6F010E1B
:1000D8007A6F80B605D0000E0001816F010E806F27
:1000E80080A019D000017C057D11D8A414D08251BC
:1000F8008311D8A410D0000E7D6F000E7C6F000E07
:100108003B6E000E3A6E000E366E000E376E000E15
:100118001AD0F28A39D080A21AD000017E057F1148
:10012800D8A415D082518311D8A411D0000E3B6EEB
:10013800010E3A6E000E7F6F000E7E6F200E366E37
:10014800BF0E376E980E386E000E396EE2D780A457
:100158001DD000017A057B11D8A418D082518311D3
:10016800D8A414D0000E7B6F000E7A6F000E3B6E81
:10017800020E3A6E070E6B6F000E6C6F7F0E6D6F7E
:10018800000E22EC06F0C5D7F2848ED780A61DD0CB
:10019800000180058111D8A418D082518311D8A4F8
:1001A80014D0000E816F000E806F020E3A183B10BB
:1001B800D8B404D0000E3B6E020E3A6E000E836F68
:1001C800010E826FEEEC05F06FD780A621D00001FA
:1001D80080058111D8A41CD082518311D8B418D0BD
:1001E800000E816F000E806F020E3A183B10D8B4D3
:1001F80004D0000E3B6E020E3A6E844B852B040E23
:1002080084198511D8A4DED7000E836F000ED9D7C4
:1002180080A0A8D000017C057D11D8A4A3D082516C
:100228008311D8B49FD0000E7D6F000E7C6F84516F
:100238008511D8A422D08451020DF350280FD96E0D
:10024800DA6A010EDBBE19D08451020DF350280F73
:10025800D96EDA6A010EDBBE07D0010EDB500DE164
:10026800090EDE5CD8B009D08451020DF350280F76
:10027800D96EDA6ADE2A000EDD22020E8419851193
:10028800D8A422D08451020DF350280FD96EDA6A0F
:10029800010EDBBE19D08451020DF350280FD96E20
:1002A800DA6A010EDBBE07D0010EDB500DE1090E44
:1002B800DE5CD8B009D08451020DF350280FD96EF6
:1002C800DA6ADE2A000EDD2284058511D8A422D040
:1002D8008451020DF350280FD96EDA6A010EDBBE85
:1002E80019D08451020DF350280FD96EDA6A010E25
:1002F800DBBE07D0010EDB500DE1050EDE5CD8B089
:1003080009D08451020DF350280FD96EDA6ADE2A1B
:10031800000EDD22030E84198511D8A453D7845109
:10032800020DF350280FD96EDA6A010EDBBE4AD7E8
:100338008451020DF350280FD96EDA6A010EDBBE24
:1003480007D0010EDB5003E1050EDE5CD8B03AD7CA
:100358008451020DF350280FD96EDA6ADE2A000E96
:10036800DD2230D780A2A0D600017E057F11D8A457
:100378009BD682518311D8B497D6000E7F6F000E9A
:100388007E6F84518511D8A428D08451020DF35072
:10039800280FD96EDA6A010EDBBE1FD0010EDB50C2
:1003A80003E1DE04D8A019D08451020DF350280FC0
:1003B800D96EDA6A010EDBBE07D0010EDB500DE103
:1003C8000A0EDE5CD8B009D08451020DF350280F14
:1003D800D96EDA6ADE06000EDD5A020E841985111E
:1003E800D8A428D08451020DF350280FD96EDA6AA8
:1003F800010EDBBE1FD0010EDB5003E1DE04D8A0E6
:1004080019D08451020DF350280FD96EDA6A010E03
:10041800DBBE07D0010EDB500DE10A0EDE5CD8B062
:1004280009D08451020DF350280FD96EDA6ADE061E
:10043800000EDD5A84058511D8A428D08451020DF8
:10044800F350280FD96EDA6A010EDBBE1FD0010EF9
:10045800DB5003E1DE04D8A019D08451020DF3501B
:10046800280FD96EDA6A010EDBBE07D0010EDB5009
:100478000DE1060EDE5CD8B009D08451020DF350B0
:10048800280FD96EDA6ADE06000EDD5A030E8419CB
:100498008511D8A497D68451020DF350280FD96E30
:1004A800DA6A010EDBBE8ED6010EDB5003E1DE04F4
:1004B800D8A088D68451020DF350280FD96EDA6A75
:1004C800010EDBBE07D0010EDB5003E1060EDE5C39
:1004D800D8B078D68451020DF350280FD96EDA6A55
:1004E800DE06000EDD5A6ED636C001F037C002F0C7
:1004F80038C003F039C004F00A0E056E000E066E0F
:10050800000E076E000E086E65EC04F001C028F0BE
:1005180002C029F036C001F037C002F038C003F03D
:1005280039C004F00A0E056E000E066E000E076E46
:10053800000E086EFFEC03F001C01CF002C01DF0B5
:10054800000E1F6E010E1E6E1CC009F01DC00AF0C1
:10055800000E0C6E0A0E0B6EB6EC05F01E50020D66
:10056800F350280FD96EDA6A09C0DEFF0AC0DDFF32
:100578001E4A1F2A000E046E0A0E036E1CC001F0EC
:100588001DC002F000EC05F001C009F002C00AF03D
:10059800000E0C6E060E0B6EB6EC05F01E50020D2A
:1005A800F350280FD96EDA6A09C0DEFF0AC0DDFFF2
:1005B8001CC001F01DC002F0000E046E3C0E036E5C
:1005C80000EC05F001C01CF002C01DF01E4A1F2AF5
:1005D8001FBEBAD71F5004E1070E1E5CD8A0B4D7BF
:1005E800BBEC04F0FF0E3626FF0E3722FF0E382232
:1005F800FF0E392239BE07D039503810371007E1BD
:100608003604D8B01200BBEC04F0F29AF29412004F
:1006180036C001F037C002F038C003F039C004F02A
:100628000A0E056E000E066E000E076E000E086EAE
:1006380065EC04F001C028F002C029F036C001F0D2
:1006480037C002F038C003F039C004F00A0E056E56
:10065800000E066E000E076E000E086EFFEC03F02B
:1006680001C01CF002C01DF0000E1F6E010E1E6EB0
:100678001CC009F01DC00AF0000E0C6E0A0E0B6EAD
:10068800B6EC05F01E50020DF350280FD96EDA6A49
:1006980009C0DEFF0AC0DDFF1E4A1F2A000E046ED5
:1006A8000A0E036E1CC001F01DC002F000EC05F03C
:1006B80001C009F002C00AF0000E0C6E060E0B6EA7
:1006C800B6EC05F01E50020DF350280FD96EDA6A09
:1006D80009C0DEFF0AC0DDFF1CC001F01DC002F02A
:1006E800000E046E3C0E036E00EC05F001C01CF019
:1006F80002C01DF01E4A1F2A1FBEBAD71F5004E1B0
:10070800070E1E5CD8A0B4D7BBEC04F0010E362649
:10071800000E37223822392212000A0E0F6E3EC010
:1007280009F03FC00AF0000E0C6E0A0E0B6EB6EC14
:1007380005F00950300F106E060E7DEC05F0090E1D
:100748000F6E000E046E0A0E036E3EC001F03FC02D
:1007580002F000EC05F001C009F002C00AF0000E3A
:100768000C6E060E0B6EB6EC05F00950300F106ECD
:10077800060E7DEC05F0080E0F6E3A0E106E060E92
:100788007DEC05F0070E0F6E000E046E3C0E036E36
:100798003EC001F03FC002F000EC05F001C009F0D6
:1007A80002C00AF0000E0C6E0A0E0B6EB6EC05F0D5
:1007B8000950300F106E060E7DEC05F0060E0F6E18
:1007C800020E046E580E036E3EC001F03FC002F0E8
:1007D80000EC05F001C009F002C00AF0000E0C6E32
:1007E800060E0B6EB6EC05F00950300F106E060EB3
:1007F8007DEC05F01200000E0A6E08AE0AD0081E45
:10080800071E061E056C000E062207220822010E8E
:100818000A6E04AE0AD0041E031E021E016C000EEE
:10082800022203220422010E0A1A000E0B6E000E89
:100838000C6E000E0D6E000E0E6E055006100710A1
:100848000810D8B42AD0010E096E06D0D890053603
:10085800063607360836092A08AEF8D7D8900B3678
:100868000C360D360E360550015C065002580750FE
:10087800035808500458D8A009D00550015E065006
:10088800025A0750035A0850045A0B80D89008326D
:10089800073206320532092EE1D70A50D8B408D0FB
:1008A8000E1E0D1E0C1E0B6C000E0C220D220E22AD
:1008B8000BC001F00CC002F00DC003F00EC004F034
:1008C8001200000E0A6E04AE0AD0041E031E021E99
:1008D800016C000E022203220422010E0A6E08AEE9
:1008E80008D0081E071E061E056C000E06220722E9
:1008F80008220550061007100810D8B424D0010E9D
:10090800096E06D0D8900536063607360836092A05
:1009180008AEF8D70550015C065002580750035836
:1009280008500458D8A008D00550015E0650025A55
:100938000750035A0850045AD89008320732063232
:100948000532092EE7D70A50D8B408D0041E031E72
:10095800021E016C000E02220322042201C001F0D3
:1009680002C002F003C003F004C004F01200000E3D
:10097800196E000E186E000E1B6E000E1A6E1A0409
:100988001B10D8A409D01A500A080F6E2E0E106E2C
:10099800060E7DEC05F024D0040E1A181B10D8B4EE
:1009A80005D0070E1A181B10D8A409D01A500A0827
:1009B8000F6E3A0E106E060E7DEC05F011D01A502F
:1009C8000A080F6E1850020DF350280FD96EDA6A14
:1009D800DF50300F106E060E7DEC05F0184A192A0C
:1009E8001A4A1B2A1BBECBD71B5005E10A0E1A5CFC
:1009F800D8B01200C4D71200000E066E04AE06D09E
:100A0800036C041ED8B0042A010E066E02AE06D08E
:100A1800016C021ED8B0022A010E061A000E086EDA
:100A2800000E076E03500410D8B41CD0010E056EDA
:100A380004D0D89003360436052A04AEFAD7D890E5
:100A4800073608360350015C04500258D8A005D078
:100A58000350015E0450025A0780D89004320332D2
:100A6800052EEDD70650D8B404D0076C081ED8B0B0
:100A7800082A07C001F008C002F012006D6FE00EEE
:100A880000016C25606F616BFF0E6123000E636FC0
:100A9800050E626F9FEC07F060C070F061C071F0E6
:100AA8006B51050DF3CF6BF0000E736F000E726F74
:100AB8000B0E7025F66E7E0E7121F76E0800F5504C
:100AC8006E6F6F6B6BC065F06EC066F06D5153EC66
:100AD80006F000016B2B704B712B724B732B73BF9D
:100AE800E7D7735105E1050E725DD8B01200E0D763
:100AF8001200136EE00E1024016E026AFF0E02222D
:100B0800000E046E050E036EB2EC07F001C014F07F
:100B180002C015F00F50050DF3CF0FF0000E176E41
:100B2800000E166E0B0E1424F66E7E0E1520F76E50
:100B38000800F550116E126A0FC006F011C007F0D8
:100B4800135084EC06F00F2A144A152A164A172A5D
:100B580017BEE8D7175005E1050E165CD8B012008D
:100B6800E1D71200000E0E6E0AAE06D0096C0A1EFE
:100B7800D8B00A2A010E0E6E0CAE04D00B6C0C1EF7
:100B8800D8B00C2A0B500C10D8B418D0010E0D6E2A
:100B980004D0D8900B360C360D2A0CAEFAD70B5071
:100BA800095C0C500A58D8A004D00B50095E0C50B0
:100BB8000A5AD8900C320B320D2EF1D70E50D8B4F9
:100BC80004D0096C0A1ED8B00A2A09C009F00AC064
:100BD8000AF01200000E0001756F000E746F000E0F
:100BE800776F000E766F020E76197711D8A409D0A8
:100BF80076510A086B6F3A0E6C6F060E42EC05F0E0
:100C080011D076510A086B6F7451020DF350280FFA
:100C1800D96EDA6ADF50300F6C6F060E42EC05F0C1
:100C2800744B752B764B772B77BFDDD7775105E162
:100C3800050E765DD8B01200D6D71200716F71C05C
:100C480072F00001736B1DD06CC074F0756B0AD024
:100C580074C065F0000E666F725153EC06F0000127
:100C6800744B752B6D516E6F6F6B74516E5D6F5158
:100C7800800A706F7551800A7059D8B0E9D7724BE5
:100C8800732B6B516E6F6F6B72516E5D6F51800A73
:100C9800706F7351800A7059D8A01200D5D7676F4A
:100CA800400E0001656104D0000E696F010E03D08B
:100CB800000E696F020E686F68C06AF06751E7EC52
:100CC80007F000016551DDEC06F000016A516DEC9A
:100CD80007F0000E936E6A05D8B48190020E6A1967
:100CE800D8B481928196818400F0818800F066C032
:100CF80083FF000E956E00F081988180818212003A
:100D0800086E400E066004D0000E0A6E010E03D075
:100D1800000E0A6E020E096E09C00BF00850F7ECBF
:100D280007F00650FDEC06F00B5087EC07F0000EBC
:100D3800936E0B04D8B48190020E0B18D8B481922C
:100D48008196818400F0818800F007C083FF000E3F
:100D5800956E00F08198818081821200000E0F014B
:100D68003B6F000E396F000E386F000E836E000E59
:100D7800816E000E806E000E956E000E936E926866
:100D8800D58ED59CD59AD596D550F80B0509D56E34
:100D9800F28EC5EC07F0070E00016B6F000E6C6F4A
:100DA8007F0E6D6F000E22EC06F0000ED6EC07F0F9
:100DB8001200646F400E000164610DD0010E626F75
:100DC8006451400936EC07F0020E0001626F400ED4
:100DD80036EC07F01200010E626F7F0E36EC07F05A
:100DE800020E0001626F6451C00F400936EC07F033
:100DF8001200056E400E05600CD0010E036E055002
:100E0800400952EC07F0020E036E400E52EC07F058
:100E18001200010E036E7F0E52EC07F0020E036EF5
:100E28000550C00F400952EC07F012000A0EF66E8A
:100E3800100EF76E000EF86E0900F5CF3EF00900AF
:100E4800F5CF3FF00001856B846B00EE28F0160E9D
:100E5800EE6AE806FDE140904092000EF86E00014F
:100E680051EF00F0636F000162516DEC07F0000E66
:100E7800936E6205D8B48190020E6219D8B481923B
:100E88008196819400F0818800F063C083FF000E92
:100E9800956E00F08198818081821200046E035063
:100EA80087EC07F0000E936E0304D8B48190020E0D
:100EB8000318D8B481928196819400F0818800F05B
:100EC80004C083FF000E956E00F0819881808182B6
:100ED8001200616F9568000E936E00016105D8B429
:100EE8008190020E6119D8B481928186819400F0B4
:100EF800818800F083CF60F08198000160BFF8D747
:100F0800818081821200026E9568000E936E020441
:100F1800D8B48190020E0218D8B481928186819447
:100F280000F0818800F083CF01F0819801BEF9D7E5
:100F380081808182120060516203F3CF64F0F4CFA4
:100F480065F060516303F350652761516203F35004
:100F5800652764C060F065C061F0120001500302AB
:100F6800F3CF05F0F4CF06F001500402F350062643
:100F780002500302F350062605C001F006C002F035
:100F88001200818A010E0001626F3F0E36EC07F0F5
:100F9800020E0001626F3F0E36EC07F0000ED6EC31
:100FA80007F012000001646F010E0001626F6451C6
:100FB800C00936EC07F0020E0001626F6451C009E7
:100FC80036EC07F01200646F010E0001626F645185
:100FD800B80936EC07F0020E0001626F6451B809D7
:100FE80036EC07F01200056E010E036E0550B809C5
:100FF80052EC07F0020E036E0550B80952EC07F0E8
:0410080012009A0236
:107E0A0000000000000000005F00000007000700FB
:107E1A00147F147F14242A7F2A12231308646236DB
:107E2A00495522500005030000001C224100004170
:107E3A00221C00082A1C2A0808083E08080050309C
:107E4A000000080808080800303000002010080464
:107E5A00023E5149453E00427F4000426151494637
:107E6A002141454B311814127F1027454545393CAD
:107E7A004A494930017109050336494949360649D3
:107E8A0049291E0036360000005636000000081444
:107E9A002241141414141441221408000201510935
:107EAA0006324979413E7E1111117E7F4949493690
:107EBA003E414141227F4141221C7F494949417F3C
:107ECA00090901013E414151327F0808087F0041FA
:107EDA007F41002040413F017F081422417F4040FA
:107EEA0040407F0204027F7F0408107F3E414141E7
:107EFA003E7F090909063E4151215E7F091929463B
:107F0A00464949493101017F01013F4040403F1F35
:107F1A002040201F7F2018207F6314081463030465
:107F2A00780403615149454300007F414102040836
:107F3A00102041417F0000040201020440404040F9
:107F4A0040000102040020545454787F48444438C5
:107F5A003844444420384444487F38545454180818
:107F6A007E090102081454543C7F08040478004432
:107F7A007D40002040443D00007F10284400417F9E
:107F8A0040007C041804787C08040478384444448B
:107F9A00387C14141408081414187C7C0804040887
:107FAA004854545420043F4440203C4040207C1C08
:107FBA002040201C3C4030403C44281028440C50AF
:107FCA0050503C4464544C44000836410000007F41
:107FDA000000004136080008082A1C08081C2A0864
:107FEA00080800AA0008003838380000000000001D
:067FFA0000000000000081
:020000040030CA
:0E000000FF021900FFA580FF0FC00FE00F40A8
:00000001FF
