:0400000039EF3EF0A6
:107C720000013CEF3EF053EC3EF082A203D033EC25
:107C82003FF0FBD746EC3EF0F8D7000E806E010EB7
:107C92000F6E0B0E0E6E000E116E020E106EDBECEE
:107CA2003EF01200000E0F01386F000E3A6F000E08
:107CB2003B6F000E926E020E946E000E956E1200D5
:107CC200000E066E02AE06D0016C021ED8B0022A69
:107CD200010E066E04AE04D0036C041ED8B0042A52
:107CE20003500410D8B418D0010E056E04D0D890F9
:107CF20003360436052A04AEFAD70350015C045059
:107D02000258D8A004D00350015E0450025AD89001
:107D120004320332052EF1D70650D8B404D0016CD8
:107D2200021ED8B0022A01C001F002C002F0120005
:107D3200000E066E04AE06D0036C041ED8B0042AF0
:107D4200010E066E02AE06D0016C021ED8B0022AE7
:107D5200010E061A000E086E000E076E0350041084
:107D6200D8B41CD0010E056E04D0D8900336043668
:107D7200052A04AEFAD7D890073608360350015CBC
:107D820004500258D8A005D00350015E0450025A94
:107D92000780D89004320332052EEDD70650D8B4AE
:107DA20004D0076C081ED8B0082A07C001F008C02A
:107DB20002F01200000E136E000E126E1050121816
:107DC2001DE111501318D8A419D012C007F013C026
:107DD20008F00EC001F00FC002F0000E046E0A0E91
:107DE200036E61EC3EF001C009F002C00AF0000E21
:107DF2000C6E010E0B6E98EC3FF018D012C007F01B
:107E020013C008F00EC001F00FC002F0000E046EA5
:107E12000A0E036E61EC3EF001C009F002C00AF0E6
:107E2200000E0C6E000E0B6E98EC3FF0000E806E92
:107E32000EC001F00FC002F0000E046E0A0E036EB7
:107E420099EC3EF001C00EF002C00FF0124A132A64
:107E520013BEB4D7135005E1040E125CD8B0120061
:107E6200ADD71200010E806E000E046E000E036E7E
:107E720052D003500410D8A402D03F0E3DD00304C8
:107E82000410D8A402D0060E37D0020E0318041034
:107E9200D8A402D05B0E30D0030E03180410D8A46D
:107EA20002D04F0E29D0040E03180410D8A402D019
:107EB200660E22D0050E03180410D8A402D06D0E4F
:107EC2001BD0060E03180410D8A402D07D0E14D0C5
:107ED200070E03180410D8A402D0070E0DD0080E06
:107EE20003180410D8A402D07F0E06D0090E03187E
:107EF2000410D8A402D06F0E836E020E026E860E9C
:107F0200016E990EE82EFED7012EFCD7022EFAD76B
:107F120000F0034A042A04BE06D0045007E10A0E08
:107F2200035CD8B0120082A21200A3D7120007503D
:107F32000810D8A402D0808012D007040810D8A458
:107F420002D080820CD0020E07180810D8A402D0EA
:107F5200808405D0030E07180810D8B48086095013
:107F62000A10D8A402D03F0E3DD009040A10D8A4AA
:107F720002D0060E37D0020E09180A10D8A402D079
:107F82005B0E30D0030E09180A10D8A402D04F0E8F
:107F920029D0040E09180A10D8A402D0660E22D0E5
:107FA200050E09180A10D8A402D06D0E1BD0060EB9
:107FB20009180A10D8A402D07D0E14D0070E091891
:107FC2000A10D8A402D0070E0DD0080E09180A1004
:107FD200D8A402D07F0E06D0090E09180A10D8A420
:107FE20002D06F0E836E0B040C10D8B4838E0D0E6C
:0E7FF2000D6EFC0EE82EFED70D2EFCD71200F1
:020000040030CA
:0E000000FF021900FFA580FF0FC00FE00F40A8
:00000001FF
