:04000000ACEF0AF067
:100600000000803F72313FFE753E58633D951D3CB2
:10061000C5AE3A79213994803793A7355615340001
:10062000000000803FF0FFBEE2A93E8376BEAE2B05
:0B0630003E3CC3BDD2133D78D3BB009D
:10063C0039503A103B10D8A407D0000E396E800EFA
:10064C003A6E3F0E3B6E1200720E016E310E026E50
:10065C00440E036E39C004F03AC005F03BC006F0FE
:10066C00E3EC09F0D8B00BD0000E566E220E556E8E
:10067C00FF0E396E7F0E3A6E7F0E3B6E120039C044
:10068C0001F03AC002F03BC003F0490E046E3A0E82
:10069C00056EC40E066EE3EC09F0D8B00BD0000E5C
:1006AC00566E220E556E000E396E000E3A6E000E0E
:1006BC003B6E12003BAE02D0010E01D0000E416E1B
:1006CC004150D8B40ED039C001F03AC002F03BC052
:1006DC0003F09AEC0AF001C039F002C03AF003C002
:1006EC003BF039C00DF03AC00EF03BC00FF0AA0E33
:1006FC00106EB80E116E3F0E126E9EEC06F00DC011
:10070C0039F00EC03AF00FC03BF039C028F03AC0B7
:10071C0029F03BC02AF08BEC07F028C03CF029C034
:10072C003DF02AC03EF03CC00DF03DC00EF03EC086
:10073C000FF0F8EC07F00DC03FF00EC040F039C0E0
:10074C0028F03AC029F03BC02AF03FC009F040C065
:10075C000AF06BEC0AF009C02BF00AC02CF00BC0AD
:10076C002DF04BEC0AF028C039F029C03AF02AC021
:10077C003BF039C028F03AC029F03BC02AF0010EFA
:10078C002B6E000E2D6E090E2C6E1BEC09F028C082
:10079C0032F029C033F02AC034F03FC035F040C0ED
:1007AC0036F061EC08F032C039F033C03AF034C0A6
:1007BC003BF04150D8B425D039280EE17F0E3A18C1
:1007CC000BE17F0E3B18D8A407D0000E396E000E3B
:1007DC003A6E000E3B6E1200000E096E800E0A6E11
:1007EC003F0E0B6E39C00CF03AC00DF03BC00EF052
:1007FC0018EC07F009C039F00AC03AF00BC03BF016
:10080C00120039C039F03AC03AF03BC03BF012004C
:10081C001EC022F0236A246A1D34223601E3238091
:10082C002250276E21C022F0236A246A20342236FB
:10083C0001E323802250266E2750D8B40AD02650CC
:10084C00275CD8B00DD02750265C226E180E22647F
:10085C0007D01FC01CF020C01DF021C01EF01200DC
:10086C002650D8B40AD02750265CD8B00DD02650CC
:10087C00275C226E180E226407D01CC01CF01DC011
:10088C001DF01EC01EF01200060E256E1EBE258E1B
:10089C0021BE258C1D8EFF0E1C16FF0E1D16000E84
:1008AC001E16208EFF0E1F16FF0E2016000E211690
:1008BC002650275CD8B01BD0D8901F362036213656
:1008CC00260627502618D8B40DD0250625C022F0B0
:1008DC00070E2216D8B406D0EFD7D8901E321D3290
:1008EC001C32272A26502718D8B41FD0F6D72750E9
:1008FC00265CD8B01AD0D8901C361D361E3627066A
:10090C0027502618D8B40DD0250625C022F0070E86
:10091C002216D8B406D0EFD7D890213220321F320D
:10092C00262A26502718D8A4F7D725AE0CD0FF0EB0
:10093C001C1AFF0E1D1AFF0E1E1A010E1C26000E8D
:10094C001D22000E1E2225AC0CD0FF0E1F1AFF0E0E
:10095C00201AFF0E211A010E1F26000E2022000E57
:10096C002122000E256E1C501F261D5020221E50C9
:10097C00212221AE0ED0FF0E1F1AFF0E201AFF0EE1
:10098C00211A010E1F26000E2022000E2122010E1C
:10099C00256E1FC001F020C002F021C003F027C05B
:1009AC0004F025C005F0C4EC08F001C01CF002C036
:1009BC001DF003C01EF01200000E4E6E425043108C
:1009CC004410D8A41BD0000E016E000E026E000E57
:1009DC00036E45C004F046C005F047C006F0E3ECDA
:1009EC0009F0D8A004D0000E566E210E556E000EE4
:1009FC00426E000E436E000E446E120045504610BF
:100A0C004710D8A407D0000E426E800E436E3F0EE6
:100A1C00446E120044AE40D045C00DF046C00EF0FE
:100A2C0047C00FF0F8EC07F00DC04FF00EC050F0BF
:100A3C000FC051F010C052F04FC009F050C00AF076
:100A4C0051C00BF052C00CF01DEC0AF045500918C7
:100A5C0007E146500A1804E147500B18D8B40BD0E4
:100A6C00000E566E210E556E000E426E000E436E39
:100A7C00000E446E12004F50010B4E6E42C001F03E
:100A8C0043C002F044C003F09AEC0AF001C042F0FB
:100A9C0002C043F003C044F042C032F043C033F014
:100AAC0044C034F09BEC05F032C048F033C049F040
:100ABC0034C04AF048C00DF049C00EF04AC00FF0E7
:100ACC0045C010F046C011F047C012F09EEC06F085
:100ADC000DC04BF00EC04CF00FC04DF04BC039F0B8
:100AEC004CC03AF04DC03BF01EEC03F039C042F064
:100AFC003AC043F03BC044F04E50D8B40FD042C083
:100B0C0001F043C002F044C003F09AEC0AF001C0BB
:100B1C0042F002C043F003C044F0120042C042F065
:100B2C0043C043F044C044F0120034AE0BD0000E6E
:100B3C00566E210E556E000E326E000E336E000E88
:100B4C00346E1200325033103410D8A40BD0000E77
:100B5C00566E220E556E000E326E000E336E000E67
:100B6C00346E1200000E106E000E116E400E126EDE
:100B7C00350E046E32C001F033C002F034C003F005
:100B8C0066EC09F001C00DF002C00EF003C00FF0CE
:100B9C009EEC06F00DC01CF00EC01DF00FC01EF038
:100BAC00000E1F6E800E206EBF0E216E0EEC04F038
:100BBC001CC032F01DC033F01EC034F03506D8A076
:100BCC00360632C028F033C029F034C02AF01F0E8C
:100BDC002B6E000E2D6E080E2C6E1BEC09F028C02F
:100BEC0032F029C033F02AC034F0720E106E310E80
:100BFC00116E3F0E126E35C009F036C00AF06BEC68
:100C0C000AF009C00DF00AC00EF00BC00FF09EECFC
:100C1C0006F00DC01CF00EC01DF00FC01EF032C04F
:100C2C001FF033C020F034C021F00EEC04F01CC0D7
:100C3C0032F01DC033F01EC034F0120087EC0AF005
:100C4C00000E0001636F070E626F000E6B6F000EDB
:100C5C006A6F6AC009F06BC00AF06BEC0AF009C04D
:100C6C0064F00AC065F00BC066F064C045F065C066
:100C7C0046F066C047F0000E426E000E436E400E0A
:100C8C00446EE2EC04F042C067F043C068F044C02C
:100C9C0069F067C00DF068C00EF069C00FF0F8EC99
:100CAC0007F00D50826E62C009F063C00AF06BEC65
:100CBC000AF009C064F00AC065F00BC066F064C0AD
:100CCC0045F065C046F066C047F0000E426E000E5F
:100CDC00436E400E446EE2EC04F042C067F043C039
:100CEC0068F044C069F067C00DF068C00EF069C0D0
:100CFC000FF0F8EC07F00D50836E00016207D8A0DE
:100D0C006307030E546E8A0E536E560EE82EFED7F2
:100D1C00532EFCD7542EFAD700016A4B6B2B6BBFAA
:100D2C0098D76B518DE1080E6A5DD8B089D791D7F1
:100D3C000FC013F0146A156A0E34133601E31480D5
:100D4C001350166E1650D8A407D0000E0D6E000E60
:100D5C000E6E000E0F6E120012C013F0146A156A9C
:100D6C001134133601E3148013501B6E1B50D8A49E
:100D7C0007D0000E0D6E000E0E6E000E0F6E1200E0
:100D8C001B507B0F16260FC01BF012501B1A800E27
:100D9C001B160E8E118EFF0E1016FF0E1116000E66
:100DAC001216000E176E000E186E000E196E070E3E
:100DBC001A6E0DA006D01050172611501822125082
:100DCC001922D8900F320E320D32D89010361136BF
:100DDC0012361A2EEED7090E1A6E0DA006D0105030
:100DEC0017261150182212501922D8900F320E3299
:100DFC000D32D8901932183217321A2EEED717C07E
:100E0C0001F018C002F019C003F016C004F01BC0AA
:100E1C0005F0C4EC08F001C00DF002C00EF003C0E8
:100E2C000FF012000BC00FF0106A116A0A340F3663
:100E3C0001E310800F50166E1650D8A407D0000E88
:100E4C00096E000E0A6E000E0B6E12000EC00FF033
:100E5C00106A116A0D340F3601E310800F50176EB3
:100E6C001750D8A407D0000E096E000E0A6E000EA3
:100E7C000B6E1200000E136E000E146E000E156E2B
:100E8C001750890F165E0BC017F00E50171A800EF4
:100E9C0017160A8EFF0E0916FF0E0A16000E0B16F9
:100EAC000D8EFF0E0C16FF0E0D16000E0E16180EE4
:100EBC00126ED8901336143615360C50095C0D5042
:100ECC000A580E500B58D8A007D00C50095E0D5084
:100EDC000A5A0E500B5A1380D89009360A360B3624
:100EEC00122EE7D713C001F014C002F015C003F0A6
:100EFC0016C004F017C005F0C4EC08F001C009F0EE
:100F0C0002C00AF003C00BF0120028C001F029C087
:100F1C0002F02AC003F02E0E046E66EC09F02FAE20
:100F2C0010D02AAE07D0000E286E800E296EBF0E90
:100F3C002A6E1200000E286E000E296E000E2A6E0C
:100F4C0012002F5004E1150E2E5CD8A007D028C03B
:100F5C0028F029C029F02AC02AF0120028C00DF070
:100F6C0029C00EF02AC00FF0F8EC07F00DC01CF0F1
:100F7C000EC01DF00FC01EF010C01FF0A7EC09F042
:100F8C001CC02BF01DC02CF01EC02DF028C001F091
:100F9C0029C002F02AC003F02BC004F02CC005F0CD
:100FAC002DC006F0E3EC09F0D8B015D02BC01CF026
:100FBC002CC01DF02DC01EF0000E1F6E800E206E7A
:100FCC00BF0E216E0EEC04F01CC028F01DC029F0E1
:100FDC001EC02AF012002BC028F02CC029F02DC006
:100FEC002AF012000FC011F0126A136A0E34113677
:100FFC0001E3128011501B6E1B50D8A409D0000EB7
:10100C000D6E000E0E6E000E0F6E000E106E1200A6
:10101C00170E116E0DC012F00EC013F00FC014F0AD
:10102C001128156E04D0D890143213321232152EAA
:10103C00FAD71250166E0E8EFF0E0D16FF0E0E16F0
:10104C00000E0F160D50176E0E50186E0F50196EB5
:10105C001A6A8E0E1B5E1BAE0DD01B50800A8F0FB2
:10106C00D8A0CDD7D8901A321932183217321B3E6D
:10107C00F9D70DD0170E1B6407D0C1D7D8901736EF
:10108C00183619361A361B061B50D8A4F7D716502B
:10109C00D8B408D01A1E191E181E176C000E182270
:1010AC0019221A2217C00DF018C00EF019C00FF03B
:1010BC001AC010F01200325033103410D8A407D0DC
:1010CC00000E326E000E336E000E346E1200345071
:1010DC007F0B376E386AD89037363836375035260E
:1010EC003850362233AE03D0376A372A01D0376AEC
:1010FC0037503526000E362236AE0BD0000E566E0B
:10110C00220E556E000E326E000E336E000E346ED3
:10111C00120036BE17D03604D8A014D0000E566E6E
:10112C00220E556E34AE07D0FF0E326E7F0E336E2C
:10113C00FF0E346E1200FF0E326E7F0E336E7F0E7A
:10114C00346E120036343630386E3530376E3450DB
:10115C003718800B3718346E35C037F0010E371640
:10116C0037323732335037187F0B3718336E32C063
:10117C0032F033C033F034C034F012000450D8B421
:10118C0005D0015002100310D8A40CD0000E016E33
:10119C00000E026E000E036E1200042AD890033269
:1011AC0002320132000E0114066E000E0214076E9C
:1011BC00FE0E0314086E065007100810D8B40CD09D
:1011CC00ECD7042A010E0126000E0222000E032287
:1011DC00D890033202320132000E0114066E000E5A
:1011EC000214076EFF0E0314086E06500710081049
:1011FC00D8B406D0E6D70406D890013602360336AA
:10120C0002BE03D0020E0460F6D704A0029ED89052
:10121C000432045003120550D8A4038E01C001F00F
:10122C0002C002F003C003F012002C50030D2B502F
:10123C00F3242E6E2EC0F6FF0900F5CF2FF0090017
:10124C00F5CF30F00A00F5CF31F02FD02FC010F0D1
:10125C0030C011F031C012F028C00DF029C00EF0D2
:10126C002AC00FF09EEC06F00DC01CF00EC01DF055
:10127C000FC01EF02C06D8A02D062C50030D2B50A1
:10128C00F3242E6E2EC0F6FF0900F5CF1FF00900D7
:10129C00F5CF20F00A00F5CF21F00EEC04F01CC0C5
:1012AC002FF01DC030F01EC031F02C502D10D8A4E2
:1012BC00CDD72FC028F030C029F031C02AF0120051
:1012CC00015002100310D8A40ED00450D96EDA6A63
:1012DC00000EDE6E000EDD6E000E016E000E026E54
:1012EC00000E036E120003507F0B056E066AD89039
:1012FC00053606360450D96EDA6A05C0DEFF06C024
:10130C00DDFF0450D96EDA6A02AE03D0056A052AF5
:10131C0001D0056A0550DE12000EDD120450D96EA4
:10132C00DA6A820EDE26FF0EDD220350800B3F09A7
:10133C00036E029E01C001F002C002F003C003F074
:10134C001200000E256E8E0E246E1FAE11D01F1EC5
:10135C001E1E1D1E1C6C000E1D221E221F22010EA5
:10136C00256E06D0D8901F321E321D321C32242A14
:10137C00000E1C14206E000E1D14216E000E1E1487
:10138C00226EFF0E1F14236E2050211022102310EA
:10139C00D8A4E8D71CC001F01DC002F01EC003F099
:1013AC0024C004F025C005F0C4EC08F001C01CF00A
:1013BC0002C01DF003C01EF0120003AE0FD0000ED1
:1013CC00076E000E086E800E096E0150075C016EF0
:1013DC0002500858026E03500958036E06AE0FD027
:1013EC00000E076E000E086E800E096E0450075C2E
:1013FC00046E05500858056E06500958066E000E0E
:10140C00011A000E021A800E031A000E041A000EA6
:10141C00051A800E061A0450015C0550025806503D
:10142C000358D8B002D0D8901200D88012008E0E7B
:10143C00116E06D0D8900C320B320A320932112AB6
:10144C00000E09140D6E000E0A140E6E000E0B1415
:10145C000F6EFF0E0C14106E0D500E100F1010109E
:10146C00D8A4E8D709C001F00AC002F00BC003F001
:10147C0011C004F0000E056EC4EC08F001C009F0B8
:10148C0002C00AF003C00BF012002B502C102D10D0
:10149C00D8B406D0000E2B1A000E2C1A800E2D1A62
:1014AC0028C01CF029C01DF02AC01EF02BC01FF054
:1014BC002CC020F02DC021F00EEC04F01CC028F044
:1014CC001DC029F01EC02AF01200000E0C6E0AAED0
:1014DC0006D0096C0A1ED8B00A2A010E0C6E09C07F
:1014EC0001F00AC002F0036A8E0E046E0CC005F007
:1014FC00C4EC08F001C009F002C00AF003C00BF004
:10150C001200000E0F013B6F000E396F000E3A6F88
:10151C009368000E946E000E956E000E816E000E98
:10152C00826E000E836E1200015002100310D8B4AC
:10153C0006D0000E011A000E021A800E031A01C00A
:10154C0001F002C002F003C003F01200566A556AA3
:0E155C00000EF86E060EF76E000124EF06F08A
:020000040030CA
:0E000000FF021900FFA580FF0FC00FE00F40A8
:00000001FF
