:04000000B0EF00F06D
:100008004082F2BAF2A4A6D0384A392A640E3818C7
:100018003910D8A49FD0000E396E000E386EC282F7
:10002800C2B2FED7C4CF2EF0030E2E162E503E6E4F
:100038003F6A3E503F6E3E6A3E50C3103E6E3F5090
:100048003F6E3C4A3D2A800E3C183D10D8A40DD086
:10005800070E0C6E000E0D6E7F0E0E6E000E01EC7C
:1000680004F0000E3D6E000E3C6E840E326E730E70
:10007800336E3F0E346E000E286E800E296E3F0ED2
:100088002A6E32C02BF033C02CF034C02DF07EEC39
:1000980004F028C02FF029C030F02AC031F032C057
:1000A80010F033C011F034C012F03AC009F03BC070
:1000B8000AF0F4EC04F009C00DF00AC00EF00BC011
:1000C8000FF086EC01F00DC01CF00EC01DF00FC043
:1000D8001EF02FC010F030C011F031C012F03EC039
:1000E80009F03FC00AF0F4EC04F009C00DF00AC0B2
:1000F8000EF00BC00FF086EC01F00DC01FF00EC023
:1001080020F00FC021F0B2EC00F01CC035F01DC08B
:1001180036F01EC037F035C001F036C002F037C0E7
:1001280003F000EC02F001C03AF002C03BF03EC020
:100138001BF03FC01CF05DEC05F035C01BF036C06D
:100148001CF037C01DF09EEC04F0F40ED76ECB0EF9
:10015800D66EF29440921100C3EF05F01EC022F053
:10016800236A246A1D34223601E323802250276E35
:1001780021C022F0236A246A2034223601E3238036
:100188002250266E2750D8B40AD02650275CD8B003
:100198000DD02750265C226E180E226407D01FC08F
:1001A8001CF020C01DF021C01EF012002650D8B44B
:1001B8000AD02750265CD8B00DD02650275C226E76
:1001C800180E226407D01CC01CF01DC01DF01EC0F4
:1001D8001EF01200060E256E1EBE258E21BE258C31
:1001E8001D8EFF0E1C16FF0E1D16000E1E16208EED
:1001F800FF0E1F16FF0E2016000E21162650275C34
:10020800D8B01BD0D8901F36203621362606275066
:100218002618D8B40DD0250625C022F0070E2216C0
:10022800D8B406D0EFD7D8901E321D321C32272AF8
:1002380026502718D8B41FD0F6D72750265CD8B038
:100248001AD0D8901C361D361E3627062750261879
:10025800D8B40DD0250625C022F0070E2216D8B432
:1002680006D0EFD7D890213220321F32262A2650C6
:100278002718D8A4F7D725AE0CD0FF0E1C1AFF0EEE
:100288001D1AFF0E1E1A010E1C26000E1D22000E3E
:100298001E2225AC0CD0FF0E1F1AFF0E201AFF0ECF
:1002A800211A010E1F26000E2022000E2122000E08
:1002B800256E1C501F261D5020221E50212221AEC3
:1002C8000ED0FF0E1F1AFF0E201AFF0E211A010E64
:1002D8001F26000E2022000E2122010E256E1FC0AF
:1002E80001F020C002F021C003F027C004F025C0AF
:1002F80005F069EC02F001C01CF002C01DF003C05B
:100308001EF012000FC013F0146A156A0E3413366B
:1003180001E314801350166E1650D8A407D0000EAF
:100328000D6E000E0E6E000E0F6E120012C013F04E
:10033800146A156A1134133601E3148013501B6EC6
:100348001B50D8A407D0000E0D6E000E0E6E000EC6
:100358000F6E12001B507B0F16260FC01BF0125099
:100368001B1A800E1B160E8E118EFF0E1016FF0E16
:100378001116000E1216000E176E000E186E000EE3
:10038800196E070E1A6E0DA006D0105017261150C0
:10039800182212501922D8900F320E320D32D890EE
:1003A8001036113612361A2EEED7090E1A6E0DA017
:1003B80006D0105017261150182212501922D89022
:1003C8000F320E320D32D8901932183217321A2ED7
:1003D800EED717C001F018C002F019C003F016C01C
:1003E80004F01BC005F069EC02F001C00DF002C07A
:1003F8000EF003C00FF0120003C005F0066A076A8A
:100408000234053601E3068005500F6E0F50D8A45C
:1004180009D0000E016E000E026E000E036E000E73
:10042800046E1200170E056E01C006F002C007F038
:1004380003C008F00528096E04D0D89008320732A6
:100448000632092EFAD706500A6E028EFF0E0116E2
:10045800FF0E0216000E031601500B6E02500C6EB2
:1004680003500D6E0E6A8E0E0F5E0FAE0DD00F503C
:10047800800A8F0FD8A0CDD7D8900E320D320C320B
:100488000B320F3EF9D70DD0170E0F6407D0C1D726
:10049800D8900B360C360D360E360F060F50D8A4F2
:1004A800F7D70A50D8B408D00E1E0D1E0C1E0B6CC0
:1004B800000E0C220D220E220BC001F00CC002F01F
:1004C8000DC003F00EC004F012000450D8B405D0DB
:1004D800015002100310D8A40CD0000E016E000EBB
:1004E800026E000E036E1200042AD8900332023204
:1004F8000132000E0114066E000E0214076EFE0E85
:100508000314086E065007100810D8B40CD0ECD7A6
:10051800042A010E0126000E0222000E0322D890A2
:10052800033202320132000E0114066E000E02146C
:10053800076EFF0E0314086E065007100810D8B493
:1005480006D0E6D70406D89001360236033602BE36
:1005580003D0020E0460F6D704A0029ED89004329D
:10056800045003120550D8A4038E01C001F002C044
:1005780002F003C003F01200000E156E13AE06D091
:10058800126C131ED8B0132A010E156E11AE06D0C8
:10059800106C111ED8B0112A010E151A000E176E14
:1005A800000E166E12501310D8B41CD0010E146E23
:1005B80004D0D89012361336142A13AEFAD7D8902E
:1005C800163617361250105C13501158D8A005D0A3
:1005D8001250105E1350115A1680D89013321232EE
:1005E800142EEDD71550D8B404D0166C171ED8B0F9
:1005F800172A16C010F017C011F01200000E0F01D4
:100608003B6F000E396F000E836E000E816E000E78
:10061800956E000E936E83EC05F0070E00016B6F6C
:10062800000E6C6F7F0E6D6F000E3EEC03F0000E37
:1006380094EC05F0C08EC050C70B2009C06EC050A6
:10064800F80B0609C06EF30EC116FC0EC116928097
:10065800010E0F01386F830EC216C280D58ED59C4D
:10066800D59AD596D550F80B0509D56EF28EF28A33
:10067800F2841200716F71C072F00001736B1DD0AB
:100688006CC074F0756B0AD074C065F0000E666FAC
:1006980072516FEC03F00001744B752B6D516E6F46
:1006A8006F6B74516E5D6F51800A706F7551800A5F
:1006B8007059D8B0E9D7724B732B6B516E6F6F6B53
:1006C80072516E5D6F51800A706F7351800A705954
:1006D800D8A01200D5D7676F400E0001656104D01D
:1006E800000E696F010E03D0000E696F020E686F6D
:1006F80068C06AF06751A5EC05F0000165515EEC31
:1007080004F000016A512BEC05F0000E936E6A05A7
:10071800D8B48190020E6A19D8B4819281968184E6
:1007280000F0818800F066C083FF000E956E00F02F
:1007380081988180818212001A6E1AC011F0D890B7
:100748001132D8901132D89011321150186E196A9E
:100758001AC011F0070E1116010E126E000E136E5C
:10076800112A03D0D89012361336112EFBD712C097
:1007780014F013C015F010C00DF0185071EC05F00E
:10078800116E1150166E176A10C006F0145016102C
:10079800076E185030EC04F01200086E400E066028
:1007A80004D0000E0A6E010E03D0000E0A6E020E6F
:1007B800096E09C00CF00750D8B406D00850B5EC43
:1007C80005F00650BBEC04F00C5045EC05F09568BC
:1007D800000E936E0C04D8B48190020E0C18D8B495
:1007E80081928186818400F0818800F083CF0BF0AC
:1007F8008198818081820B501200126E12C013F012
:10080800146A1CD00DC015F0166A09D015C006F080
:10081800000E076E135030EC04F0154A162A0E50DD
:100828000F6E106A15500F5C1050800A116E16502A
:10083800800A1158D8B0EAD7134A142A0C500F6E00
:10084800106A13500F5C1050800A116E1450800A01
:100858001158D8A01200D6D7086E400E066004D0F2
:10086800000E0A6E010E03D0000E0A6E020E096E0B
:1008780009C00BF00850B5EC05F00650BBEC04F0CD
:100888000B5045EC05F0000E936E0B04D8B4819024
:10089800020E0B18D8B481928196818400F0818869
:1008A80000F007C083FF000E956E00F081988180EC
:1008B80081821200646F400E000164610DD0010E48
:1008C800626F64514009D8EC04F0020E0001626FB7
:1008D800400ED8EC04F01200010E626F7F0ED8ECC7
:1008E80004F0020E0001626F6451C00F4009D8EC99
:1008F80004F012002B502C102D10D8B406D0000E86
:100908002B1A000E2C1A800E2D1A28C01CF029C094
:100918001DF02AC01EF02BC01FF02CC020F02DC0E7
:1009280021F0B2EC00F01CC028F01DC029F01EC058
:100938002AF012001BC001F01CC002F01DC003F019
:1009480000EC02F001C010F002C011F0000E136EAE
:10095800200E126EC0EC02F010C01EF011C01FF085
:100968003CC010F01E50200FA0EC03F01200056EE2
:10097800400E05600CD0010E036E0550400910ECC6
:1009880005F0020E036E400E10EC05F01200010E89
:10099800036E7F0E10EC05F0020E036E0550C00FBB
:1009A800400910EC05F01200636F000162512BEC56
:1009B80005F0000E936E6205D8B48190020E62199C
:1009C800D8B481928196819400F0818800F063C048
:1009D80083FF000E956E00F081988180818212005D
:1009E800000E0C6E0AAE06D0096C0A1ED8B00A2A90
:1009F800010E0C6E09C001F00AC002F0036A8E0EE7
:100A0800046E0CC005F069EC02F001C009F002C0E8
:100A18000AF003C00BF01200046E035045EC05F019
:100A2800000E936E0304D8B48190020E0318D8B454
:100A380081928196819400F0818800F004C083FF40
:100A4800000E956E00F08198818081821200616F9E
:100A58009568000E936E00016105D8B48190020E6E
:100A68006119D8B481928186819400F0818800F060
:100A780083CF60F08198000160BFF8D781808182C0
:100A88001200026E9568000E936E0204D8B481902D
:100A9800020E0218D8B481928186819400F0818870
:100AA80000F083CF01F0819801BEF9D7818081825F
:100AB80012001BC010F01CC011F0000E136E200EA7
:100AC800126EC0EC02F010C01DF011C01EF03CC048
:100AD80010F01D50A0EC03F012000F6E0DC006F0D0
:100AE800010E076E0F50D1EC03F00DC006F0010E99
:100AF800076E0F50D1EC03F00E6E0E501200818A73
:100B0800010E0001626F3F0ED8EC04F0020E0001E6
:100B1800626F3F0ED8EC04F0000E94EC05F0120062
:100B28000001646F010E0001626F6451C009D8ECC6
:100B380004F0020E0001626F6451C009D8EC04F0A1
:100B48001200646F010E0001626F6451B809D8EC9D
:100B580004F0020E0001626F6451B809D8EC04F089
:100B68001200056E010E036E0550B80910EC05F071
:100B7800020E036E0550B80910EC05F0120000EEE5
:100B880038F0080EEE6AE806FDE140904092000E4B
:0E0B9800F86E0001D0EF05F002EC03F0FFD77D
:107E0A0000000000000000005F00000007000700FB
:107E1A00147F147F14242A7F2A12231308646236DB
:107E2A00495522500005030000001C224100004170
:107E3A00221C00082A1C2A0808083E08080050309C
:107E4A000000080808080800303000002010080464
:107E5A00023E5149453E00427F4000426151494637
:107E6A002141454B311814127F1027454545393CAD
:107E7A004A494930017109050336494949360649D3
:107E8A0049291E0036360000005636000000081444
:107E9A002241141414141441221408000201510935
:107EAA0006324979413E7E1111117E7F4949493690
:107EBA003E414141227F4141221C7F494949417F3C
:107ECA00090901013E414151327F0808087F0041FA
:107EDA007F41002040413F017F081422417F4040FA
:107EEA0040407F0204027F7F0408107F3E414141E7
:107EFA003E7F090909063E4151215E7F091929463B
:107F0A00464949493101017F01013F4040403F1F35
:107F1A002040201F7F2018207F6314081463030465
:107F2A00780403615149454300007F414102040836
:107F3A00102041417F0000040201020440404040F9
:107F4A0040000102040020545454787F48444438C5
:107F5A003844444420384444487F38545454180818
:107F6A007E090102081454543C7F08040478004432
:107F7A007D40002040443D00007F10284400417F9E
:107F8A0040007C041804787C08040478384444448B
:107F9A00387C14141408081414187C7C0804040887
:107FAA004854545420043F4440203C4040207C1C08
:107FBA002040201C3C4030403C44281028440C50AF
:107FCA0050503C4464544C44000836410000007F41
:107FDA000000004136080008082A1C08081C2A0864
:107FEA00080800AA0008003838380000000000001D
:067FFA0000000000000081
:020000040030CA
:0E000000FF021900FFA580FF0FC00FE00F40A8
:00000001FF
