:040000002BEF00F0F2
:060008005B82B6EF0AF076
:100018005B80D8CF01F0E8CF02F0E0CF03F0F0B07A
:10002800F0A604D0F0900001844B852BF0B2F0A824
:1000380006D0F092000E0001856F000E846F03C099
:10004800E0FF02C0E8FF01C0D8FF5B90100035EF69
:020058000AF0AC
:100600000000803F72313FFE753E58633D951D3CB2
:10061000C5AE3A79213994803793A7355615340001
:10062000000000803FF0FFBEE2A93E8376BEAE2B05
:0B0630003E3CC3BDD2133D78D3BB009D
:10063C003C503D103E10D8A407D0000E3C6E800EEE
:10064C003D6E3F0E3E6E1200720E046E310E056E44
:10065C00440E066E3CC007F03DC008F03EC009F0E9
:10066C00CDEC09F0D8B00BD0000E586E220E576EA0
:10067C00FF0E3C6E7F0E3D6E7F0E3E6E12003CC038
:10068C0004F03DC005F03EC006F0490E076E3A0E70
:10069C00086EC40E096ECDEC09F0D8B00BD0000E6C
:1006AC00586E220E576E000E3C6E000E3D6E000E04
:1006BC003E6E12003EAE02D0010E01D0000E446E12
:1006CC004450D8B40ED03CC004F03DC005F03EC040
:1006DC0006F0CEEC0AF004C03CF005C03DF006C0BC
:1006EC003EF03CC010F03DC011F03EC012F0AA0E1E
:1006FC00136EB80E146E3F0E156E24EC06F010C07F
:10070C003CF011C03DF012C03EF03CC02BF03DC09F
:10071C002CF03EC02DF011EC07F02BC03FF02CC09C
:10072C0040F02DC041F03FC010F040C011F041C06E
:10073C0012F07EEC07F010C042F011C043F03CC048
:10074C002BF03DC02CF03EC02DF042C00CF043C04D
:10075C000DF07FEC0AF00CC02EF00DC02FF00EC087
:10076C0030F05FEC0AF02BC03CF02CC03DF02DC0FB
:10077C003EF03CC02BF03DC02CF03EC02DF0010EE5
:10078C002E6E000E306E090E2F6E05EC09F02BC08C
:10079C0035F02CC036F02DC037F042C038F043C0D5
:1007AC0039F04BEC08F035C03CF036C03DF037C0AA
:1007BC003EF04450D8B425D03C280EE17F0E3D18B5
:1007CC000BE17F0E3E18D8A407D0000E3C6E000E35
:1007DC003D6E000E3E6E1200000E0C6E800E0D6E05
:1007EC003F0E0E6E3CC00FF03DC010F03EC011F03D
:1007FC009EEC06F00CC03CF00DC03DF00EC03EF07F
:10080C0012003CC03CF03DC03DF03EC03EF012003A
:10081C0021C025F0266A276A2034253601E326807C
:10082C0025502A6E24C025F0266A276A23342536E3
:10083C0001E326802550296E2A50D8B40AD02950BD
:10084C002A5CD8B00DD02A50295C256E180E256470
:10085C0007D022C01FF023C020F024C021F01200CA
:10086C002950D8B40AD02A50295CD8B00DD02950C0
:10087C002A5C256E180E256407D01FC01FF020C0FF
:10088C0020F021C021F01200060E286E21BE288E09
:10089C0024BE288C208EFF0E1F16FF0E2016000E75
:1008AC002116238EFF0E2216FF0E2316000E241681
:1008BC0029502A5CD8B01BD0D89022362336243647
:1008CC0029062A502918D8B40DD0280628C025F09E
:1008DC00070E2516D8B406D0EFD7D8902132203287
:1008EC001F322A2A29502A18D8B41FD0F6D72A50DA
:1008FC00295CD8B01AD0D8901F36203621362A065B
:10090C002A502918D8B40DD0280628C025F0070E77
:10091C002516D8B406D0EFD7D89024322332223201
:10092C00292A29502A18D8A4F7D728AE0CD0FF0EA4
:10093C001F1AFF0E201AFF0E211A010E1F26000E81
:10094C002022000E212228AC0CD0FF0E221AFF0E02
:10095C00231AFF0E241A010E2226000E2322000E4B
:10096C002422000E286E1F502226205023222150B4
:10097C00242224AE0ED0FF0E221AFF0E231AFF0ED5
:10098C00241A010E2226000E2322000E2422010E10
:10099C00286E22C004F023C005F024C006F02AC043
:1009AC0007F028C008F0AEEC08F004C01FF005C03A
:1009BC0020F006C021F01200000E516E455046107A
:1009CC004710D8A41BD0000E046E000E056E000E4E
:1009DC00066E48C007F049C008F04AC009F0CDECDB
:1009EC0009F0D8A004D0000E586E210E576E000EE0
:1009FC00456E000E466E000E476E120048504910B0
:100A0C004A10D8A407D0000E456E800E466E3F0EDD
:100A1C00476E120047AE40D048C010F049C011F0EC
:100A2C004AC012F07EEC07F010C052F011C053F027
:100A3C0012C054F013C055F052C00CF053C00DF05E
:100A4C0054C00EF055C00FF007EC0AF048500C18CB
:100A5C0007E149500D1804E14A500E18D8B40BD0D8
:100A6C00000E586E210E576E000E456E000E466E2F
:100A7C00000E476E12005250010B516E45C004F02F
:100A8C0046C005F047C006F0CEEC0AF004C045F0B5
:100A9C0005C046F006C047F045C035F046C036F0FC
:100AAC0047C037F09BEC05F035C04BF036C04CF02E
:100ABC0037C04DF04BC010F04CC011F04DC012F0CF
:100ACC0048C013F049C014F04AC015F024EC06F0ED
:100ADC0010C04EF011C04FF012C050F04EC03CF0A0
:100AEC004FC03DF050C03EF01EEC03F03CC045F052
:100AFC003DC046F03EC047F05150D8B40FD045C071
:100B0C0004F046C005F047C006F0CEEC0AF004C075
:100B1C0045F005C046F006C047F0120045C045F050
:100B2C0046C046F047C047F0120037AE0BD0000E5F
:100B3C00586E210E576E000E356E000E366E000E7E
:100B4C00376E1200355036103710D8A40BD0000E6B
:100B5C00586E220E576E000E356E000E366E000E5D
:100B6C00376E1200000E136E000E146E400E156ED2
:100B7C00380E076E35C004F036C005F037C006F0ED
:100B8C0050EC09F004C010F005C011F006C012F0D2
:100B9C0024EC06F010C01FF011C020F012C021F0A0
:100BAC00000E226E800E236EBF0E246E0EEC04F02F
:100BBC001FC035F020C036F021C037F03806D8A061
:100BCC00390635C02BF036C02CF037C02DF01F0E77
:100BDC002E6E000E306E080E2F6E05EC09F02BC039
:100BEC0035F02CC036F02DC037F0720E136E310E6E
:100BFC00146E3F0E156E38C00CF039C00DF07FEC42
:100C0C000AF00CC010F00DC011F00EC012F024EC64
:100C1C0006F010C01FF011C020F012C021F035C03A
:100C2C0022F036C023F037C024F00EEC04F01FC0C5
:100C3C0035F020C036F021C037F0120012C016F08B
:100C4C00176A186A1134163601E317801650196E9C
:100C5C001950D8A407D0000E106E000E116E000EA5
:100C6C00126E120015C016F0176A186A1434163674
:100C7C0001E3178016501E6E1E50D8A407D0000E2C
:100C8C00106E000E116E000E126E12001E507B0FB5
:100C9C00192612C01EF015501E1A800E1E16118E2B
:100CAC00148EFF0E1316FF0E1416000E1516000EE2
:100CBC001A6E000E1B6E000E1C6E070E1D6E10A021
:100CCC0006D013501A2614501B2215501C22D890F3
:100CDC00123211321032D8901336143615361D2EAE
:100CEC00EED7090E1D6E10A006D013501A26145004
:100CFC001B2215501C22D890123211321032D8906F
:100D0C001C321B321A321D2EEED71AC004F01BC037
:100D1C0005F01CC006F019C007F01EC008F0AEECC0
:100D2C0008F004C010F005C011F006C012F012005B
:100D3C000EC012F0136A146A0D34123601E31380DC
:100D4C001250196E1950D8A407D0000E0C6E000E5C
:100D5C000D6E000E0E6E120011C012F0136A146AA2
:100D6C001034123601E3138012501A6E1A50D8A4A4
:100D7C0007D0000E0C6E000E0D6E000E0E6E1200E3
:100D8C00000E166E000E176E000E186E1A50890F9C
:100D9C00195E0EC01AF011501A1A800E1A160D8E0A
:100DAC00FF0E0C16FF0E0D16000E0E16108EFF0EFB
:100DBC000F16FF0E1016000E1116180E156ED89089
:100DCC001636173618360F500C5C10500D58115043
:100DDC000E58D8A007D00F500C5E10500D5A115061
:100DEC000E5A1680D8900C360D360E36152EE7D7C7
:100DFC0016C004F017C005F018C006F019C007F0B3
:100E0C001AC008F0AEEC08F004C00CF005C00DF0F0
:100E1C0006C00EF012002BC004F02CC005F02DC043
:100E2C0006F0310E076E50EC09F032AE10D02DAE3C
:100E3C0007D0000E2B6E800E2C6EBF0E2D6E120086
:100E4C00000E2B6E000E2C6E000E2D6E120032500A
:100E5C0004E1150E315CD8A007D02BC02BF02CC0B0
:100E6C002CF02DC02DF012002BC010F02CC011F066
:100E7C002DC012F07EEC07F010C01FF011C020F056
:100E8C0012C021F013C022F091EC09F01FC02EF01B
:100E9C0020C02FF021C030F02BC004F02CC005F086
:100EAC002DC006F02EC007F02FC008F030C009F09E
:100EBC00CDEC09F0D8B015D02EC01FF02FC020F00B
:100ECC0030C021F0000E226E800E236EBF0E246EF9
:100EDC000EEC04F01FC02BF020C02CF021C02DF024
:100EEC0012002EC02BF02FC02CF030C02DF01200B1
:100EFC0012C014F0156A166A1134143601E3158009
:100F0C0014501E6E1E50D8A409D0000E106E000E88
:100F1C00116E000E126E000E136E1200170E146E70
:100F2C0010C015F011C016F012C017F01428186E6E
:100F3C0004D0D890173216321532182EFAD7155015
:100F4C00196E118EFF0E1016FF0E1116000E1216D2
:100F5C0010501A6E11501B6E12501C6E1D6A8E0EA4
:100F6C001E5E1EAE0DD01E50800A8F0FD8A0CDD79E
:100F7C00D8901D321C321B321A321E3EF9D70DD0BE
:100F8C00170E1E6407D0C1D7D8901A361B361C36E4
:100F9C001D361E061E50D8A4F7D71950D8B408D049
:100FAC001D1E1C1E1B1E1A6C000E1B221C221D2239
:100FBC001AC010F01BC011F01CC012F01DC013F0B1
:100FCC0012009BEC0AF0000E0001836F000E826F82
:100FDC00825103080C6E8351D8A0E82A00080D6ECC
:100FEC007FEC0AF00CC07CF00DC07DF00EC07EF0E2
:100FFC007CC048F07DC049F07EC04AF0000E456EC2
:10100C00000E466E400E476EE2EC04F045C07FF0D9
:10101C0046C080F047C081F07FC010F080C011F056
:10102C0081C012F07EEC07F01050806E000185BF7D
:10103C000BD0855104E10A0E845DD8A005D08251F5
:10104C00020DF350740F07D08004D8A409D084513A
:10105C00020DF350600FD96EDA6ADF50836E02D046
:10106C0060C083FF0D0E566EFC0EE82EFED7562E7A
:10107C00FCD70001824B832B83BFAAD78351A3E1FA
:10108C00040E825DD8B09FD7A3D7355036103710D9
:10109C00D8A407D0000E356E000E366E000E376EDB
:1010AC00120037507F0B3A6E3B6AD8903A363B367B
:1010BC003A5038263B50392236AE03D03A6A3A2A97
:1010CC0001D03A6A3A503826000E392239AE0BD08C
:1010DC00000E586E220E576E000E356E000E366ED8
:1010EC00000E376E120039BE17D03904D8A014D0B8
:1010FC00000E586E220E576E37AE07D0FF0E356EAF
:10110C007F0E366EFF0E376E1200FF0E356E7F0EA1
:10111C00366E7F0E376E1200393439303B6E3830F4
:10112C003A6E37503A18800B3A18376E38C03AF08E
:10113C00010E3A163A323A3236503A187F0B3A18B8
:10114C00366E35C035F036C036F037C037F0120089
:10115C000750D8B405D0045005100610D8A40CD0F4
:10116C00000E046E000E056E000E066E1200072AAD
:10117C00D890063205320432000E0414096E000EAB
:10118C0005140A6EFE0E06140B6E09500A100B1095
:10119C00D8B40CD0ECD7072A010E0426000E052279
:1011AC00000E0622D890063205320432000E0414CA
:1011BC00096E000E05140A6EFF0E06140B6E095014
:1011CC000A100B10D8B406D0E6D70706D890043610
:1011DC000536063605BE03D0020E0760F6D707A00B
:1011EC00059ED8900732075006120850D8A4068ED8
:1011FC0004C004F005C005F006C006F012002F5024
:10120C00030D2E50F324316E31C0F6FF0900F5CFDB
:10121C0032F00900F5CF33F00A00F5CF34F02FD0BF
:10122C0032C013F033C014F034C015F02BC010F0E2
:10123C002CC011F02DC012F024EC06F010C01FF0E1
:10124C0011C020F012C021F02F06D8A030062F506C
:10125C00030D2E50F324316E31C0F6FF0900F5CF8B
:10126C0022F00900F5CF23F00A00F5CF24F00EECA4
:10127C0004F01FC032F020C033F021C034F02F50E6
:10128C003010D8A4CDD732C02BF033C02CF034C0E2
:10129C002DF01200045005100610D8A40ED00750E3
:1012AC00D96EDA6A000EDE6E000EDD6E000E046E74
:1012BC00000E056E000E066E120006507F0B086EB7
:1012CC00096AD890083609360750D96EDA6A08C010
:1012DC00DEFF09C0DDFF0750D96EDA6A05AE03D018
:1012EC00086A082A01D0086A0850DE12000EDD12C6
:1012FC000750D96EDA6A820EDE26FF0EDD2206500A
:10130C00800B3F09066E059E04C004F005C005F075
:10131C0006C006F01200000E286E8E0E276E22AE4E
:10132C0011D0221E211E201E1F6C000E20222122F5
:10133C002222010E286E06D0D89022322132203281
:10134C001F32272A000E1F14236E000E2014246E49
:10135C00000E2114256EFF0E2214266E235024102D
:10136C0025102610D8A4E8D71FC004F020C005F023
:10137C0021C006F027C007F028C008F0AEEC08F03A
:10138C0004C01FF005C020F006C021F0120006AE0C
:10139C000FD0000E0A6E000E0B6E800E0C6E0450F9
:1013AC000A5C046E05500B58056E06500C58066E00
:1013BC0009AE0FD0000E0A6E000E0B6E800E0C6E76
:1013CC0007500A5C076E08500B58086E09500C58F1
:1013DC00096E000E041A000E051A800E061A000E75
:1013EC00071A000E081A800E091A0750045C0850E0
:1013FC00055809500658D8B002D0D8901200D880A1
:10140C0012008E0E146E06D0D8900F320E320D32A2
:10141C000C32142A000E0C14106E000E0D14116EEA
:10142C00000E0E14126EFF0E0F14136E10501110CE
:10143C0012101310D8A4E8D70CC004F00DC005F09E
:10144C000EC006F014C007F0000E086EAEEC08F0EB
:10145C0004C00CF005C00DF006C00EF01200C00E5A
:10146C00F66E150EF76E000EF86E00EE60F010EED4
:10147C001CF00900F5CFEEFFE550E150FAE1DC0E6F
:10148C00F66E150EF76E000EF86E0900F5CF59F0DA
:10149C000900F5CF5AF00001856B846B586A576AC6
:1014AC005B905B92000EF86E060EF76E0001E7EF94
:1014BC0007F02E502F103010D8B406D0000E2E1A74
:1014CC00000E2F1A800E301A2BC01FF02CC020F0EB
:1014DC002DC021F02EC022F02FC023F030C024F0FC
:1014EC000EEC04F01FC02BF020C02CF021C02DF00E
:1014FC001200000E0F6E0DAE06D00C6C0D1ED8B087
:10150C000D2A010E0F6E0CC004F00DC005F0066A1A
:10151C008E0E076E0FC008F0AEEC08F004C00CF095
:10152C0005C00DF006C00EF01200000E0F01386F52
:10153C00000E396F000E3B6F000E926E070E936E0D
:10154C00000E956E010E806ED08EF28EF28CF288AB
:10155C00F19CF18AF188F09CF09EF086F0881200E4
:10156C00F2B2F2A813D0F29259505A10D8B406D055
:10157C00F096F098000E5A6E000E07D0F086F088A8
:10158C00F090F092000E5A6E010E596E5B921100A3
:10159C00045005100610D8B406D0000E041A000E24
:1015AC00051A800E061A04C004F005C005F006C02A
:1015BC0006F012003F0006005B004F0066006D0055
:1015CC007D0007007F006F007900500050008600FE
:0215DC0001000C
:00000001FF
