:040000008FEF3EF050
:107CE400000E0F01386F000E3A6F000E3B6F000E4E
:0C7CF400926E020E946E000E956E12004F
:107D01003F0006005B004F0066006D007D0007002C
:107D11007F006F0041445249414E203139640EF6D3
:107D21006E7D0EF76E000EF86E01EE00F010EE683B
:107D3100F00900F5CFEEFFE550E150FAE1010EF652
:107D41006E7D0EF76E000EF86E00EE01F010EE1D66
:107D5100F00900F5CFEEFFE550E150FAE1000141F5
:107D6100EF3FF077007C0058005E00790071003D24
:107D710000740030001E0076003000760054005C74
:107D8100007300670050006D0078001C003E003E4B
:107D91000076006E005B0077007C0039005E0079A0
:107DA1000071003D00760030001E0076003800763C
:107DB1000054003F007300670050006D0078003EE2
:107DC100003E003E0076006E005B000001DC6F1E8D
:107DD100C080FF20EE01F010EEC8F0130EDBCFE300
:107DE100FFE806FCE221EE34F010EE60F0330EDB2A
:107DF100CFE3FFE806FCE221EE00F010EE94F03351
:107E01000EDBCFE3FFE806FCE22F0E0001DC650C80
:107E1100D03A0EDC6109D0DC51020DF3CF20F0A085
:107E21000E20262050C80F1DD0400EDC650CD05B03
:107E31000EDC6109D0DC51020DF3CF20F07E0E2063
:107E4100262050600F0ED0600EDC650FD07B0EDC5B
:107E5100610CD0DC51020DF3CF20F03E0E20262024
:107E610050940FD96EDA6ADF5001D0000E836E276D
:107E71000E206EF50EE82EFED7202EFCD700F01254
:107E81000072EC3EF0010E806E20EE15F010EE2334
:107E9100F0080EDBCFE3FFE806FCE2000E2D6E00DA
:107EA1000E2C6E2C502D10D8A40CD0000E1F6E017C
:107EB1000E1E6E2C50230FD96EDA6ADF50E6EC3EAF
:107EC100F086D02C042D10D8A41BD0000E1F6E02FA
:107ED1000E1E6E2CC021F0FF0E21262150230FD93A
:107EE1006EDA6ADF50E6EC3EF0000E1F6E010E1EE8
:107EF1006E2C50230FD96EDA6ADF50E6EC3EF06744
:107F0100D0020E2C182D10D8A42AD0000E1F6E04FA
:107F11000E1E6E2CC021F0FE0E21262150230FD9FA
:107F21006EDA6ADF50E6EC3EF0000E1F6E020E1EA6
:107F31006E2CC021F0FF0E21262150230FD96EDABD
:107F41006ADF50E6EC3EF0000E1F6E010E1E6E2C35
:107F510050230FD96EDA6ADF50E6EC3EF038D000DC
:107F61000E1F6E080E1E6E2CC021F0FD0E21262163
:107F710050230FD96EDA6ADF50E6EC3EF0000E1F97
:107F81006E040E1E6E2CC021F0FE0E212621502300
:107F91000FD96EDA6ADF50E6EC3EF0000E1F6E027A
:107FA1000E1E6E2CC021F0FF0E21262150230FD969
:107FB1006EDA6ADF50E6EC3EF0000E1F6E010E1E17
:107FC1006E2C50230FD96EDA6ADF50E6EC3EF002D8
:107FD1000E226E040E216EBA0EE82EFED7212EFC63
:107FE100D7222EFAD700D02C4A2D2A2DBE5AD72DB2
:0F7FF1005005E1090E2C5CD8B045D753D743D7C4
:020000040030CA
:0E000000FF021900FFA580FF0FC00FE00F40A8
:00000001FF
