:04000000BAEF3FF024
:107F74000001D0EF3FF0000E0F01386F000E396F93
:107F8400000E3A6F000E926E9368000E946E000E0F
:107F9400806E000E816E000E826E1200BDEC3FF00A
:107FA400000E026E000E016E000E046E000E036ED3
:107FB4008150D8A404D0000E026E010E0CD08104AE
:107FC400D8A40BD001040210D8A407D0034A042A71
:107FD400000E026E000E016E07D0010E816404D003
:107FE400000E046E000E036E03C080FF8150D8A4FF
:0C7FF40002D0010E01D0000E826EDAD720
:020000040030CA
:0E000000FF021900FFA580FF0FC00FE00F40A8
:00000001FF
