:0400000035EF00F0E8
:06000800568261EF0AF0D0
:100018005680D8CF05F0E8CF06F0E0CF07F0020E03
:10002800046E040E036EBA0EE82EFED7032EFCD71C
:10003800042EFAD700D0F0B0F0A603D0F090524AC0
:10004800532AF0B2F0A805D0F092000E536E000EBD
:10005800526E07C0E0FF06C0E8FF05C0D8FF569003
:06006800100038EF0AF061
:100600000000803F72313FFE753E58633D951D3CB2
:10061000C5AE3A79213994803793A7355615340001
:10062000000000803FF0FFBEE2A93E8376BEAE2B05
:0B0630003E3CC3BDD2133D78D3BB009D
:10063C00405041104210D8A407D0000E406E800EDE
:10064C00416E3F0E426E1200720E086E310E096E34
:10065C00440E0A6E40C00BF041C00CF042C00DF0CD
:10066C00D0EC09F0D8B00BD0000E516E220E506EAB
:10067C00FF0E406E7F0E416E7F0E426E120040C028
:10068C0008F041C009F042C00AF0490E0B6E3A0E58
:10069C000C6EC40E0D6ED0EC09F0D8B00BD0000E61
:1006AC00516E220E506E000E406E000E416E000E0A
:1006BC00426E120042AE02D0010E01D0000E486E06
:1006CC004850D8B40ED040C008F041C009F042C028
:1006DC000AF0DCEC0AF008C040F009C041F00AC096
:1006EC0042F040C014F041C015F042C016F0AA0E02
:1006FC00176EB80E186E3F0E196E27EC06F014C06C
:10070C0040F015C041F016C042F040C02FF041C07F
:10071C0030F042C031F014EC07F02FC043F030C081
:10072C0044F031C045F043C014F044C015F045C04E
:10073C0016F081EC07F014C046F015C047F040C02D
:10074C002FF041C030F042C031F046C010F047C02D
:10075C0011F0A5EC0AF010C032F011C033F012C049
:10076C0034F085EC0AF02FC040F030C041F031C0BD
:10077C0042F040C02FF041C030F042C031F0010EC9
:10078C00326E000E346E090E336E08EC09F02FC079
:10079C0039F030C03AF031C03BF046C03CF047C0B5
:1007AC003DF04EEC08F039C040F03AC041F03BC08F
:1007BC0042F04850D8B425D040280EE17F0E4118A5
:1007CC000BE17F0E4218D8A407D0000E406E000E2D
:1007DC00416E000E426E1200000E106E800E116EF5
:1007EC003F0E126E40C013F041C014F042C015F021
:1007FC00A1EC06F010C040F011C041F012C042F064
:10080C00120040C040F041C041F042C042F0120022
:10081C0025C029F02A6A2B6A2434293601E32A8060
:10082C0029502E6E28C029F02A6A2B6A27342936C3
:10083C0001E32A8029502D6E2E50D8B40AD02D50A9
:10084C002E5CD8B00DD02E502D5C296E180E29645C
:10085C0007D026C023F027C024F028C025F01200B2
:10086C002D50D8B40AD02E502D5CD8B00DD02D50B0
:10087C002E5C296E180E296407D023C023F024C0E7
:10088C0024F025C025F01200060E2C6E25BE2C8EF1
:10089C0028BE2C8C248EFF0E2316FF0E2416000E61
:1008AC002516278EFF0E2616FF0E2716000E28166D
:1008BC002D502E5CD8B01BD0D89026362736283633
:1008CC002D062E502D18D8B40DD02C062CC029F086
:1008DC00070E2916D8B406D0EFD7D890253224327B
:1008EC0023322E2A2D502E18D8B41FD0F6D72E50C6
:1008FC002D5CD8B01AD0D8902336243625362E0647
:10090C002E502D18D8B40DD02C062CC029F0070E63
:10091C002916D8B406D0EFD7D890283227322632F1
:10092C002D2A2D502E18D8A4F7D72CAE0CD0FF0E94
:10093C00231AFF0E241AFF0E251A010E2326000E71
:10094C002422000E25222CAC0CD0FF0E261AFF0EF2
:10095C00271AFF0E281A010E2626000E2722000E3B
:10096C002822000E2C6E2350262624502722255098
:10097C00282228AE0ED0FF0E261AFF0E271AFF0EC5
:10098C00281A010E2626000E2722000E2822010E00
:10099C002C6E26C008F027C009F028C00AF02EC023
:1009AC000BF02CC00CF0B1EC08F008C023F009C01F
:1009BC0024F00AC025F01200000E0001826F49508D
:1009CC004A104B10D8A41BD0000E086E000E096EF6
:1009DC00000E0A6E4CC00BF04DC00CF04EC00DF06A
:1009EC00D0EC09F0D8A004D0000E516E210E506E40
:1009FC00000E496E000E4A6E000E4B6E12004C50EB
:100A0C004D104E10D8A407D0000E496E800E4A6EC1
:100A1C003F0E4B6E12004BAE41D04CC014F04DC08B
:100A2C0015F04EC016F081EC07F014C083F015C021
:100A3C0084F016C085F017C086F083C010F084C017
:100A4C0011F085C012F086C013F00AEC0AF04C507D
:100A5C00101807E14D50111804E14E501218D8B47B
:100A6C000BD0000E516E210E506E000E496E000E12
:100A7C004A6E000E4B6E120000018351010B826F07
:100A8C0049C008F04AC009F04BC00AF0DCEC0AF08F
:100A9C0008C049F009C04AF00AC04BF049C039F00F
:100AAC004AC03AF04BC03BF09EEC05F039C07CF0EC
:100ABC003AC07DF03BC07EF07CC014F07DC015F0D8
:100ACC007EC016F04CC017F04DC018F04EC019F097
:100ADC0027EC06F014C07FF015C080F016C081F032
:100AEC007FC040F080C041F081C042F01EEC03F0AA
:100AFC0040C049F041C04AF042C04BF00001825165
:100B0C00D8B40FD049C008F04AC009F04BC00AF065
:100B1C00DCEC0AF008C049F009C04AF00AC04BF0FE
:100B2C00120049C049F04AC04AF04BC04BF01200C9
:100B3C003BAE0BD0000E516E210E506E000E396E76
:100B4C00000E3A6E000E3B6E120039503A103B10FC
:100B5C00D8A40BD0000E516E220E506E000E396EC2
:100B6C00000E3A6E000E3B6E1200000E176E000E59
:100B7C00186E400E196E3C0E0B6E39C008F03AC060
:100B8C0009F03BC00AF053EC09F008C014F009C09E
:100B9C0015F00AC016F027EC06F014C023F015C0AF
:100BAC0024F016C025F0000E266E800E276EBF0EA8
:100BBC00286E0EEC04F023C039F024C03AF025C0A6
:100BCC003BF03C06D8A03D0639C02FF03AC030F0BF
:100BDC003BC031F01F0E326E000E346E080E336EB9
:100BEC0008EC09F02FC039F030C03AF031C03BF0BE
:100BFC00720E176E310E186E3F0E196E3CC010F04F
:100C0C003DC011F0A5EC0AF010C014F011C015F0A5
:100C1C0012C016F027EC06F014C023F015C024F017
:100C2C0016C025F039C026F03AC027F03BC028F09A
:100C3C000EEC04F023C039F024C03AF025C03BF090
:100C4C00120016C01AF01B6A1C6A15341A3601E31E
:100C5C001B801A501D6E1D50D8A407D0000E146EA8
:100C6C00000E156E000E166E120019C01AF01B6ADB
:100C7C001C6A18341A3601E31B801A50226E22505B
:100C8C00D8A407D0000E146E000E156E000E166E52
:100C9C00120022507B0F1D2616C022F01950221A6A
:100CAC00800E2216158E188EFF0E1716FF0E1816B4
:100CBC00000E1916000E1E6E000E1F6E000E206E1A
:100CCC00070E216E14A006D017501E2618501F2296
:100CDC0019502022D890163215321432D89017366B
:100CEC0018361936212EEED7090E216E14A006D017
:100CFC0017501E2618501F2219502022D890163239
:100D0C0015321432D89020321F321E32212EEED7DB
:100D1C001EC008F01FC009F020C00AF01DC00BF067
:100D2C0022C00CF0B1EC08F008C014F009C015F0AA
:100D3C000AC016F0120012C016F0176A186A1134A5
:100D4C00163601E3178016501D6E1D50D8A407D01F
:100D5C00000E106E000E116E000E126E120015C0F9
:100D6C0016F0176A186A1434163601E317801650F9
:100D7C001E6E1E50D8A407D0000E106E000E116E01
:100D8C00000E126E1200000E1A6E000E1B6E000E7C
:100D9C001C6E1E50890F1D5E12C01EF015501E1ABF
:100DAC00800E1E16118EFF0E1016FF0E1116000E61
:100DBC001216148EFF0E1316FF0E1416000E1516B7
:100DCC00180E196ED8901A361B361C361350105C40
:100DDC001450115815501258D8A007D01350105E4B
:100DEC001450115A1550125A1A80D89010361136C8
:100DFC001236192EE7D71AC008F01BC009F01CC018
:100E0C000AF01DC00BF01EC00CF0B1EC08F008C0CD
:100E1C0010F009C011F00AC012F012002FC008F037
:100E2C0030C009F031C00AF0350E0B6E53EC09F0EE
:100E3C0036AE10D031AE07D0000E2F6E800E306E55
:100E4C00BF0E316E1200000E2F6E000E306E000EB3
:100E5C00316E1200365004E1150E355CD8A007D067
:100E6C002FC02FF030C030F031C031F012002FC045
:100E7C0014F030C015F031C016F081EC07F014C03E
:100E8C0023F015C024F016C025F017C026F094EC02
:100E9C0009F023C032F024C033F025C034F02FC049
:100EAC0008F030C009F031C00AF032C00BF033C08A
:100EBC000CF034C00DF0D0EC09F0D8B015D032C025
:100ECC0023F033C024F034C025F0000E266E800EC3
:100EDC00276EBF0E286E0EEC04F023C02FF024C03A
:100EEC0030F025C031F0120032C02FF033C030F09A
:100EFC0034C031F0120016C018F0196A1A6A153491
:100F0C00183601E319801850226E2250D8A409D04B
:100F1C00000E146E000E156E000E166E000E176E7F
:100F2C001200170E186E14C019F015C01AF016C066
:100F3C001BF018281C6E04D0D8901B321A321932B0
:100F4C001C2EFAD719501D6E158EFF0E1416FF0E9F
:100F5C001516000E161614501E6E15501F6E1650D8
:100F6C00206E216A8E0E225E22AE0DD02250800A97
:100F7C008F0FD8A0CDD7D890213220321F321E32FD
:100F8C00223EF9D70DD0170E226407D0C1D7D890C6
:100F9C001E361F362036213622062250D8A4F7D70B
:100FAC001D50D8B408D0211E201E1F1E1E6C000E12
:100FBC001F22202221221EC014F01FC015F020C0B9
:100FCC0016F021C017F01200C1EC0AF0000E00015F
:100FDC008E6F000E8D6F8D510308106E8E51D8A040
:100FEC00E82A0008116EA5EC0AF010C087F011C0B9
:100FFC0088F012C089F087C04CF088C04DF089C0D1
:10100C004EF0000E496E000E4A6E400E4B6EE2EC36
:10101C0004F049C08AF04AC08BF04BC08CF08AC0F7
:10102C0014F08BC015F08CC016F081EC07F0145046
:10103C00806E53BE0CD0535004E10A0E525CD8A003
:10104C0006D000018D51020DF350740F07D08004AF
:10105C00D8A409D05250020DF350600FD96EDA6A41
:10106C00DF50836E02D060C083FF0D0E4F6EFC0EFE
:10107C00E82EFED74F2EFCD700018D4B8E2B8EBF4A
:10108C00AAD78E51A3E1040E8D5DD8B09FD7A3D7FC
:10109C0039503A103B10D8A407D0000E396E000E10
:1010AC003A6E000E3B6E12003B507F0B3E6E3F6A59
:1010BC00D8903E363F363E503C263F503D223AAE0D
:1010CC0003D03E6A3E2A01D03E6A3E503C26000EBA
:1010DC003D223DAE0BD0000E516E220E506E000E16
:1010EC00396E000E3A6E000E3B6E12003DBE17D0EC
:1010FC003D04D8A014D0000E516E220E506E3BAEA3
:10110C0007D0FF0E396E7F0E3A6EFF0E3B6E12004B
:10111C00FF0E396E7F0E3A6E7F0E3B6E12003D3421
:10112C003D303F6E3C303E6E3B503E18800B3E18BF
:10113C003B6E3CC03EF0010E3E163E323E323A5003
:10114C003E187F0B3E183A6E39C039F03AC03AF06F
:10115C003BC03BF012000B50D8B405D0085009101E
:10116C000A10D8A40CD0000E086E000E096E000EEA
:10117C000A6E12000B2AD8900A3209320832000E7D
:10118C0008140D6E000E09140E6EFE0E0A140F6E6E
:10119C000D500E100F10D8B40CD0ECD70B2A010E3A
:1011AC000826000E0922000E0A22D8900A320932B3
:1011BC000832000E08140D6E000E09140E6EFF0E90
:1011CC000A140F6E0D500E100F10D8B406D0E6D7BF
:1011DC000B06D890083609360A3609BE03D0020E23
:1011EC000B60F6D70BA0099ED8900B320B500A124D
:1011FC000C50D8A40A8E08C008F009C009F00AC027
:10120C000AF012003350030D3250F324356E35C002
:10121C00F6FF0900F5CF36F00900F5CF37F00A00DC
:10122C00F5CF38F02FD036C017F037C018F038C0D3
:10123C0019F02FC014F030C015F031C016F027ECA7
:10124C0006F014C023F015C024F016C025F03306A8
:10125C00D8A034063350030D3250F324356E35C00C
:10126C00F6FF0900F5CF26F00900F5CF27F00A00AC
:10127C00F5CF28F00EEC04F023C036F024C037F084
:10128C0025C038F033503410D8A4CDD736C02FF049
:10129C0037C030F038C031F01200085009100A1075
:1012AC00D8A40ED00B50D96EDA6A000EDE6E000E8A
:1012BC00DD6E000E086E000E096E000E0A6E120036
:1012CC000A507F0B0C6E0D6AD8900C360D360B50F5
:1012DC00D96EDA6A0CC0DEFF0DC0DDFF0B50D96E83
:1012EC00DA6A09AE03D00C6A0C2A01D00C6A0C50D5
:1012FC00DE12000EDD120B50D96EDA6A820EDE267B
:10130C00FF0EDD220A50800B3F090A6E099E08C0B1
:10131C0008F009C009F00AC00AF01200000E2C6E89
:10132C008E0E2B6E26AE11D0261E251E241E236C6F
:10133C00000E242225222622010E2C6E06D0D890D7
:10134C0026322532243223322B2A000E2314276E08
:10135C00000E2414286E000E2514296EFF0E261480
:10136C002A6E2750281029102A10D8A4E8D723C099
:10137C0008F024C009F025C00AF02BC00BF02CC0DB
:10138C000CF0B1EC08F008C023F009C024F00AC03E
:10139C0025F012000AAE0FD0000E0E6E000E0F6E6E
:1013AC00800E106E08500E5C086E09500F58096EB6
:1013BC000A5010580A6E0DAE0FD0000E0E6E000EB5
:1013CC000F6E800E106E0B500E5C0B6E0C500F5887
:1013DC000C6E0D5010580D6E000E081A000E091AE6
:1013EC00800E0A1A000E0B1A000E0C1A800E0D1A23
:1013FC000B50085C0C5009580D500A58D8B002D04C
:10140C00D8901200D88012008E0E186E06D0D8908C
:10141C001332123211321032182A000E1014146EBC
:10142C00000E1114156E000E1214166EFF0E13140E
:10143C00176E1450151016101710D8A4E8D710C03A
:10144C0008F011C009F012C00AF018C00BF0000E21
:10145C000C6EB1EC08F008C010F009C011F00AC015
:10146C0012F01200DC0EF66E150EF76E000EF86E12
:10147C0000EE60F010EE1CF00900F5CFEEFFE55029
:10148C00E150FAE1F80EF66E150EF76E000EF86EDE
:10149C000900F5CF54F00900F5CF55F0536A526AA4
:1014AC00516A506A56905692000EF86E060EF76E00
:1014BC000001EAEF07F0020E026E040E016EBA0E86
:1014CC00E82EFED7012EFCD7022EFAD700D0F2B2AE
:1014DC00F2A813D0F29254505510D8B406D0F0960E
:1014EC00F098000E556E000E07D0F086F088F09044
:1014FC00F092000E556E010E546E56921100325041
:10150C0033103410D8B406D0000E321A000E331A31
:10151C00800E341A2FC023F030C024F031C025F0D7
:10152C0032C026F033C027F034C028F00EEC04F0A3
:10153C0023C02FF024C030F025C031F01200000E73
:10154C00136E11AE06D0106C111ED8B0112A010EFC
:10155C00136E10C008F011C009F00A6A8E0E0B6EE3
:10156C0013C00CF0B1EC08F008C010F009C011F079
:10157C000AC012F01200000E0F01386F000E396F06
:10158C00000E3B6F000E926E070E936E000E956E62
:10159C00010E806ED08EF28EF28CF288F19CF18A64
:1015AC00F188F09CF09EF086F0881200085009102B
:1015BC000A10D8B406D0000E081A000E091A800EB4
:1015CC000A1A08C008F009C009F00AC00AF0120093
:1015DC003F0006005B004F0066006D007D000700B9
:0E15EC007F006F007900500050008600010063
:020000040030CA
:0E000000FF021900FFA580FF0FC00FE00F40A8
:00000001FF
