:0400000050EF00F0CD
:100008000D829DB29EA246D0094A0A2A080E0918F6
:100018000A10D8A43ED0000E0A6E000E096EBB501E
:10002800D8B437D00B500C10D8A40ED00A0EBB246D
:10003800016E026A000E0222000E046E020E036EAA
:1000480052EC00F00150BE6E0B040C10D8A403D083
:10005800D890BB30BE6E020E0B180C10D8A40ED070
:10006800F60EBB24016E026AFF0E0222000E046E19
:10007800020E036E52EC00F00150BE6E0B4A0C2AC1
:10008800030E0B180C10D8A404D0000E0C6E000E32
:100098000B6E9E920D921100D3EF00F0000E066ECB
:1000A80004AE06D0036C041ED8B0042A010E066EF6
:1000B80002AE06D0016C021ED8B0022A010E061A42
:1000C800000E086E000E076E03500410D8B41CD042
:1000D800010E056E04D0D89003360436052A04AE06
:1000E800FAD7D890073608360350015C04500258F6
:1000F800D8A005D00350015E0450025A0780D8905A
:1001080004320332052EEDD70650D8B404D0076C5C
:10011800081ED8B0082A07C001F008C002F0120073
:10012800B9EC00F081A002D0EE0E1DD081A202D061
:10013800D40E19D081A402D0BD0E15D081A602D04C
:10014800B20E11D081A802D09E0E0DD081AA02D085
:100158008D0E09D081AC02D07E0E05D081AE02D0C2
:10016800760E01D0000EBB6EDDD79494870EBA16BA
:10017800BA84030EBA12FC0E0F014917CF0EBD1632
:10018800BD50F00B0C09BD6EF28E9D82F28C000EF4
:10019800BB6E000EBE6E000E396F936812000C6ABB
:1001A8000B6A0A6A096A0D900D92000194EF00F03B
:020000040030CA
:0E000000FF021900FFA580FF0FC00FE00F40A8
:00000001FF
