:04000000C6EF3FF018
:107F8C000001DDEF3FF0000E0F013B6F000E396F6B
:107F9C00000E3A6F000E956E000E936E000E946EEE
:107FAC00000E836E000E816E000E826E1200C9EC04
:107FBC003FF03C0E816E7E0E826E810E836E0B0E38
:107FCC00026E260E016E5E0EE82EFED7012EFCD739
:107FDC00022EFAD78168810E826E83680B0E026EB8
:107FEC00260E016E5E0EE82EFED7012EFCD7022E59
:047FFC00FAD7DFD7FA
:020000040030CA
:0E000000FF021900FFA580FF0FC00FE00F40A8
:00000001FF
